{
  "_format": "hh-sol-artifact-1",
  "contractName": "LiquidityPool",
  "sourceName": "contracts/LiquidityPool.sol",
  "abi": [
    {
      "inputs": [
        {
          "internalType": "address",
          "name": "usdcAddress",
          "type": "address"
        },
        {
          "internalType": "address",
          "name": "bltmAddress",
          "type": "address"
        },
        {
          "internalType": "uint256",
          "name": "rate",
          "type": "uint256"
        }
      ],
      "stateMutability": "nonpayable",
      "type": "constructor"
    },
    {
      "inputs": [],
      "name": "AccessControlBadConfirmation",
      "type": "error"
    },
    {
      "inputs": [
        {
          "internalType": "address",
          "name": "account",
          "type": "address"
        },
        {
          "internalType": "bytes32",
          "name": "neededRole",
          "type": "bytes32"
        }
      ],
      "name": "AccessControlUnauthorizedAccount",
      "type": "error"
    },
    {
      "anonymous": false,
      "inputs": [
        {
          "indexed": true,
          "internalType": "address",
          "name": "user",
          "type": "address"
        },
        {
          "indexed": false,
          "internalType": "uint256",
          "name": "usdcAmount",
          "type": "uint256"
        },
        {
          "indexed": false,
          "internalType": "uint256",
          "name": "bltmAmount",
          "type": "uint256"
        }
      ],
      "name": "Deposit",
      "type": "event"
    },
    {
      "anonymous": false,
      "inputs": [
        {
          "indexed": true,
          "internalType": "address",
          "name": "user",
          "type": "address"
        },
        {
          "indexed": false,
          "internalType": "uint256",
          "name": "bltmAmount",
          "type": "uint256"
        },
        {
          "indexed": false,
          "internalType": "uint256",
          "name": "usdcAmount",
          "type": "uint256"
        }
      ],
      "name": "Redemption",
      "type": "event"
    },
    {
      "anonymous": false,
      "inputs": [
        {
          "indexed": true,
          "internalType": "bytes32",
          "name": "role",
          "type": "bytes32"
        },
        {
          "indexed": true,
          "internalType": "bytes32",
          "name": "previousAdminRole",
          "type": "bytes32"
        },
        {
          "indexed": true,
          "internalType": "bytes32",
          "name": "newAdminRole",
          "type": "bytes32"
        }
      ],
      "name": "RoleAdminChanged",
      "type": "event"
    },
    {
      "anonymous": false,
      "inputs": [
        {
          "indexed": true,
          "internalType": "bytes32",
          "name": "role",
          "type": "bytes32"
        },
        {
          "indexed": true,
          "internalType": "address",
          "name": "account",
          "type": "address"
        },
        {
          "indexed": true,
          "internalType": "address",
          "name": "sender",
          "type": "address"
        }
      ],
      "name": "RoleGranted",
      "type": "event"
    },
    {
      "anonymous": false,
      "inputs": [
        {
          "indexed": true,
          "internalType": "bytes32",
          "name": "role",
          "type": "bytes32"
        },
        {
          "indexed": true,
          "internalType": "address",
          "name": "account",
          "type": "address"
        },
        {
          "indexed": true,
          "internalType": "address",
          "name": "sender",
          "type": "address"
        }
      ],
      "name": "RoleRevoked",
      "type": "event"
    },
    {
      "anonymous": false,
      "inputs": [
        {
          "indexed": true,
          "internalType": "address",
          "name": "owner",
          "type": "address"
        },
        {
          "indexed": false,
          "internalType": "uint256",
          "name": "amount",
          "type": "uint256"
        }
      ],
      "name": "Withdrawal",
      "type": "event"
    },
    {
      "inputs": [],
      "name": "DEFAULT_ADMIN_ROLE",
      "outputs": [
        {
          "internalType": "bytes32",
          "name": "",
          "type": "bytes32"
        }
      ],
      "stateMutability": "view",
      "type": "function"
    },
    {
      "inputs": [],
      "name": "OWNER_ROLE",
      "outputs": [
        {
          "internalType": "bytes32",
          "name": "",
          "type": "bytes32"
        }
      ],
      "stateMutability": "view",
      "type": "function"
    },
    {
      "inputs": [],
      "name": "bltmToken",
      "outputs": [
        {
          "internalType": "contract BLTMToken",
          "name": "",
          "type": "address"
        }
      ],
      "stateMutability": "view",
      "type": "function"
    },
    {
      "inputs": [
        {
          "internalType": "uint256",
          "name": "amount",
          "type": "uint256"
        }
      ],
      "name": "depositUSDC",
      "outputs": [],
      "stateMutability": "nonpayable",
      "type": "function"
    },
    {
      "inputs": [],
      "name": "exchangeRate",
      "outputs": [
        {
          "internalType": "uint256",
          "name": "",
          "type": "uint256"
        }
      ],
      "stateMutability": "view",
      "type": "function"
    },
    {
      "inputs": [
        {
          "internalType": "bytes32",
          "name": "role",
          "type": "bytes32"
        }
      ],
      "name": "getRoleAdmin",
      "outputs": [
        {
          "internalType": "bytes32",
          "name": "",
          "type": "bytes32"
        }
      ],
      "stateMutability": "view",
      "type": "function"
    },
    {
      "inputs": [
        {
          "internalType": "bytes32",
          "name": "role",
          "type": "bytes32"
        },
        {
          "internalType": "address",
          "name": "account",
          "type": "address"
        }
      ],
      "name": "grantRole",
      "outputs": [],
      "stateMutability": "nonpayable",
      "type": "function"
    },
    {
      "inputs": [
        {
          "internalType": "bytes32",
          "name": "role",
          "type": "bytes32"
        },
        {
          "internalType": "address",
          "name": "account",
          "type": "address"
        }
      ],
      "name": "hasRole",
      "outputs": [
        {
          "internalType": "bool",
          "name": "",
          "type": "bool"
        }
      ],
      "stateMutability": "view",
      "type": "function"
    },
    {
      "inputs": [
        {
          "internalType": "uint256",
          "name": "amount",
          "type": "uint256"
        }
      ],
      "name": "redeemBLTM",
      "outputs": [],
      "stateMutability": "nonpayable",
      "type": "function"
    },
    {
      "inputs": [
        {
          "internalType": "bytes32",
          "name": "role",
          "type": "bytes32"
        },
        {
          "internalType": "address",
          "name": "callerConfirmation",
          "type": "address"
        }
      ],
      "name": "renounceRole",
      "outputs": [],
      "stateMutability": "nonpayable",
      "type": "function"
    },
    {
      "inputs": [
        {
          "internalType": "bytes32",
          "name": "role",
          "type": "bytes32"
        },
        {
          "internalType": "address",
          "name": "account",
          "type": "address"
        }
      ],
      "name": "revokeRole",
      "outputs": [],
      "stateMutability": "nonpayable",
      "type": "function"
    },
    {
      "inputs": [],
      "name": "royaltyPercentage",
      "outputs": [
        {
          "internalType": "uint256",
          "name": "",
          "type": "uint256"
        }
      ],
      "stateMutability": "view",
      "type": "function"
    },
    {
      "inputs": [
        {
          "internalType": "uint256",
          "name": "newRate",
          "type": "uint256"
        }
      ],
      "name": "setExchangeRate",
      "outputs": [],
      "stateMutability": "nonpayable",
      "type": "function"
    },
    {
      "inputs": [
        {
          "internalType": "bytes4",
          "name": "interfaceId",
          "type": "bytes4"
        }
      ],
      "name": "supportsInterface",
      "outputs": [
        {
          "internalType": "bool",
          "name": "",
          "type": "bool"
        }
      ],
      "stateMutability": "view",
      "type": "function"
    },
    {
      "inputs": [],
      "name": "usdcToken",
      "outputs": [
        {
          "internalType": "contract IERC20",
          "name": "",
          "type": "address"
        }
      ],
      "stateMutability": "view",
      "type": "function"
    },
    {
      "inputs": [
        {
          "internalType": "uint256",
          "name": "amount",
          "type": "uint256"
        }
      ],
      "name": "withdrawUSDC",
      "outputs": [],
      "stateMutability": "nonpayable",
      "type": "function"
    }
  ],
  "bytecode": "0x6080604052600260045534801561001557600080fd5b5060405161197238038061197283398181016040528101906100379190610315565b61004a6000801b3361010d60201b60201c565b5061007b7fb19546dff01e856fb3f010c267a7b1c60363cf8a4664e21cc89c26224620214e3361010d60201b60201c565b5082600260006101000a81548173ffffffffffffffffffffffffffffffffffffffff021916908373ffffffffffffffffffffffffffffffffffffffff16021790555081600360006101000a81548173ffffffffffffffffffffffffffffffffffffffff021916908373ffffffffffffffffffffffffffffffffffffffff16021790555080600181905550505050610368565b600061011f838361020a60201b60201c565b6101ff57600160008085815260200190815260200160002060000160008473ffffffffffffffffffffffffffffffffffffffff1673ffffffffffffffffffffffffffffffffffffffff16815260200190815260200160002060006101000a81548160ff02191690831515021790555061019c61027460201b60201c565b73ffffffffffffffffffffffffffffffffffffffff168273ffffffffffffffffffffffffffffffffffffffff16847f2f8788117e7eff1d82e926ec794901d17c78024a50270940304540a733656f0d60405160405180910390a460019050610204565b600090505b92915050565b600080600084815260200190815260200160002060000160008373ffffffffffffffffffffffffffffffffffffffff1673ffffffffffffffffffffffffffffffffffffffff16815260200190815260200160002060009054906101000a900460ff16905092915050565b600033905090565b600080fd5b600073ffffffffffffffffffffffffffffffffffffffff82169050919050565b60006102ac82610281565b9050919050565b6102bc816102a1565b81146102c757600080fd5b50565b6000815190506102d9816102b3565b92915050565b6000819050919050565b6102f2816102df565b81146102fd57600080fd5b50565b60008151905061030f816102e9565b92915050565b60008060006060848603121561032e5761032d61027c565b5b600061033c868287016102ca565b935050602061034d868287016102ca565b925050604061035e86828701610300565b9150509250925092565b6115fb806103776000396000f3fe608060405234801561001057600080fd5b50600436106101005760003560e01c80638a71bb2d11610097578063db068e0e11610066578063db068e0e1461029b578063db81f99b146102b7578063e58378bb146102d3578063f688bcfb146102f157610100565b80638a71bb2d1461021357806391d1485414610231578063a217fddf14610261578063d547741f1461027f57610100565b80632f2ff15d116100d35780632f2ff15d146101a157806336568abe146101bd5780633ba0b9a9146101d95780634d65e030146101f757610100565b806301ffc9a71461010557806311eac85514610135578063232e249f14610153578063248a9ca314610171575b600080fd5b61011f600480360381019061011a9190610f8f565b61030d565b60405161012c9190610fd7565b60405180910390f35b61013d610387565b60405161014a9190611071565b60405180910390f35b61015b6103ad565b60405161016891906110ad565b60405180910390f35b61018b600480360381019061018691906110fe565b6103d3565b604051610198919061113a565b60405180910390f35b6101bb60048036038101906101b69190611193565b6103f2565b005b6101d760048036038101906101d29190611193565b610414565b005b6101e161048f565b6040516101ee91906111ec565b60405180910390f35b610211600480360381019061020c9190611233565b610495565b005b61021b610747565b60405161022891906111ec565b60405180910390f35b61024b60048036038101906102469190611193565b61074d565b6040516102589190610fd7565b60405180910390f35b6102696107b7565b604051610276919061113a565b60405180910390f35b61029960048036038101906102949190611193565b6107be565b005b6102b560048036038101906102b09190611233565b6107e0565b005b6102d160048036038101906102cc9190611233565b610815565b005b6102db610a4e565b6040516102e8919061113a565b60405180910390f35b61030b60048036038101906103069190611233565b610a72565b005b60007f7965db0b000000000000000000000000000000000000000000000000000000007bffffffffffffffffffffffffffffffffffffffffffffffffffffffff1916827bffffffffffffffffffffffffffffffffffffffffffffffffffffffff19161480610380575061037f82610c78565b5b9050919050565b600260009054906101000a900473ffffffffffffffffffffffffffffffffffffffff1681565b600360009054906101000a900473ffffffffffffffffffffffffffffffffffffffff1681565b6000806000838152602001908152602001600020600101549050919050565b6103fb826103d3565b61040481610ce2565b61040e8383610cf6565b50505050565b61041c610de7565b73ffffffffffffffffffffffffffffffffffffffff168173ffffffffffffffffffffffffffffffffffffffff1614610480576040517f6697b23200000000000000000000000000000000000000000000000000000000815260040160405180910390fd5b61048a8282610def565b505050565b60015481565b6000600154826104a591906112be565b905080600260009054906101000a900473ffffffffffffffffffffffffffffffffffffffff1673ffffffffffffffffffffffffffffffffffffffff166370a08231306040518263ffffffff1660e01b815260040161050391906112fe565b602060405180830381865afa158015610520573d6000803e3d6000fd5b505050506040513d601f19601f82011682018060405250810190610544919061132e565b1015610585576040517f08c379a000000000000000000000000000000000000000000000000000000000815260040161057c906113b8565b60405180910390fd5b600360009054906101000a900473ffffffffffffffffffffffffffffffffffffffff1673ffffffffffffffffffffffffffffffffffffffff16639dc29fac33846040518363ffffffff1660e01b81526004016105e29291906113d8565b600060405180830381600087803b1580156105fc57600080fd5b505af1158015610610573d6000803e3d6000fd5b50505050600260009054906101000a900473ffffffffffffffffffffffffffffffffffffffff1673ffffffffffffffffffffffffffffffffffffffff1663a9059cbb33836040518363ffffffff1660e01b81526004016106719291906113d8565b6020604051808303816000875af1158015610690573d6000803e3d6000fd5b505050506040513d601f19601f820116820180604052508101906106b4919061142d565b6106f3576040517f08c379a00000000000000000000000000000000000000000000000000000000081526004016106ea906114a6565b60405180910390fd5b3373ffffffffffffffffffffffffffffffffffffffff167feebddeddf4ae1ee54a48517af27958e7666d69c7ba2e3e7c2b0ff87ef5f4491e838360405161073b9291906114c6565b60405180910390a25050565b60045481565b600080600084815260200190815260200160002060000160008373ffffffffffffffffffffffffffffffffffffffff1673ffffffffffffffffffffffffffffffffffffffff16815260200190815260200160002060009054906101000a900460ff16905092915050565b6000801b81565b6107c7826103d3565b6107d081610ce2565b6107da8383610def565b50505050565b7fb19546dff01e856fb3f010c267a7b1c60363cf8a4664e21cc89c26224620214e61080a81610ce2565b816001819055505050565b7fb19546dff01e856fb3f010c267a7b1c60363cf8a4664e21cc89c26224620214e61083f81610ce2565b81600260009054906101000a900473ffffffffffffffffffffffffffffffffffffffff1673ffffffffffffffffffffffffffffffffffffffff166370a08231306040518263ffffffff1660e01b815260040161089b91906112fe565b602060405180830381865afa1580156108b8573d6000803e3d6000fd5b505050506040513d601f19601f820116820180604052508101906108dc919061132e565b101561091d576040517f08c379a0000000000000000000000000000000000000000000000000000000008152600401610914906113b8565b60405180910390fd5b600260009054906101000a900473ffffffffffffffffffffffffffffffffffffffff1673ffffffffffffffffffffffffffffffffffffffff1663a9059cbb33846040518363ffffffff1660e01b815260040161097a9291906113d8565b6020604051808303816000875af1158015610999573d6000803e3d6000fd5b505050506040513d601f19601f820116820180604052508101906109bd919061142d565b6109fc576040517f08c379a00000000000000000000000000000000000000000000000000000000081526004016109f3906114a6565b60405180910390fd5b3373ffffffffffffffffffffffffffffffffffffffff167f7fcf532c15f0a6db0bd6d0e038bea71d30d808c7d98cb3bf7268a95bf5081b6583604051610a4291906111ec565b60405180910390a25050565b7fb19546dff01e856fb3f010c267a7b1c60363cf8a4664e21cc89c26224620214e81565b6000606460045483610a8491906114ef565b610a8e91906112be565b905060008183610a9e9190611531565b9050600060015482610ab091906114ef565b9050600260009054906101000a900473ffffffffffffffffffffffffffffffffffffffff1673ffffffffffffffffffffffffffffffffffffffff166323b872dd3330876040518463ffffffff1660e01b8152600401610b1193929190611565565b6020604051808303816000875af1158015610b30573d6000803e3d6000fd5b505050506040513d601f19601f82011682018060405250810190610b54919061142d565b610b93576040517f08c379a0000000000000000000000000000000000000000000000000000000008152600401610b8a906114a6565b60405180910390fd5b600360009054906101000a900473ffffffffffffffffffffffffffffffffffffffff1673ffffffffffffffffffffffffffffffffffffffff166340c10f1933836040518363ffffffff1660e01b8152600401610bf09291906113d8565b600060405180830381600087803b158015610c0a57600080fd5b505af1158015610c1e573d6000803e3d6000fd5b505050503373ffffffffffffffffffffffffffffffffffffffff167f90890809c654f11d6e72a28fa60149770a0d11ec6c92319d6ceb2bb0a4ea1a158583604051610c6a9291906114c6565b60405180910390a250505050565b60007f01ffc9a7000000000000000000000000000000000000000000000000000000007bffffffffffffffffffffffffffffffffffffffffffffffffffffffff1916827bffffffffffffffffffffffffffffffffffffffffffffffffffffffff1916149050919050565b610cf381610cee610de7565b610ee1565b50565b6000610d02838361074d565b610ddc57600160008085815260200190815260200160002060000160008473ffffffffffffffffffffffffffffffffffffffff1673ffffffffffffffffffffffffffffffffffffffff16815260200190815260200160002060006101000a81548160ff021916908315150217905550610d79610de7565b73ffffffffffffffffffffffffffffffffffffffff168273ffffffffffffffffffffffffffffffffffffffff16847f2f8788117e7eff1d82e926ec794901d17c78024a50270940304540a733656f0d60405160405180910390a460019050610de1565b600090505b92915050565b600033905090565b6000610dfb838361074d565b15610ed657600080600085815260200190815260200160002060000160008473ffffffffffffffffffffffffffffffffffffffff1673ffffffffffffffffffffffffffffffffffffffff16815260200190815260200160002060006101000a81548160ff021916908315150217905550610e73610de7565b73ffffffffffffffffffffffffffffffffffffffff168273ffffffffffffffffffffffffffffffffffffffff16847ff6391f5c32d9c69d2a47ea670b442974b53935d1edc7fd64eb21e047a839171b60405160405180910390a460019050610edb565b600090505b92915050565b610eeb828261074d565b610f2e5780826040517fe2517d3f000000000000000000000000000000000000000000000000000000008152600401610f2592919061159c565b60405180910390fd5b5050565b600080fd5b60007fffffffff0000000000000000000000000000000000000000000000000000000082169050919050565b610f6c81610f37565b8114610f7757600080fd5b50565b600081359050610f8981610f63565b92915050565b600060208284031215610fa557610fa4610f32565b5b6000610fb384828501610f7a565b91505092915050565b60008115159050919050565b610fd181610fbc565b82525050565b6000602082019050610fec6000830184610fc8565b92915050565b600073ffffffffffffffffffffffffffffffffffffffff82169050919050565b6000819050919050565b600061103761103261102d84610ff2565b611012565b610ff2565b9050919050565b60006110498261101c565b9050919050565b600061105b8261103e565b9050919050565b61106b81611050565b82525050565b60006020820190506110866000830184611062565b92915050565b60006110978261103e565b9050919050565b6110a78161108c565b82525050565b60006020820190506110c2600083018461109e565b92915050565b6000819050919050565b6110db816110c8565b81146110e657600080fd5b50565b6000813590506110f8816110d2565b92915050565b60006020828403121561111457611113610f32565b5b6000611122848285016110e9565b91505092915050565b611134816110c8565b82525050565b600060208201905061114f600083018461112b565b92915050565b600061116082610ff2565b9050919050565b61117081611155565b811461117b57600080fd5b50565b60008135905061118d81611167565b92915050565b600080604083850312156111aa576111a9610f32565b5b60006111b8858286016110e9565b92505060206111c98582860161117e565b9150509250929050565b6000819050919050565b6111e6816111d3565b82525050565b600060208201905061120160008301846111dd565b92915050565b611210816111d3565b811461121b57600080fd5b50565b60008135905061122d81611207565b92915050565b60006020828403121561124957611248610f32565b5b60006112578482850161121e565b91505092915050565b7f4e487b7100000000000000000000000000000000000000000000000000000000600052601260045260246000fd5b7f4e487b7100000000000000000000000000000000000000000000000000000000600052601160045260246000fd5b60006112c9826111d3565b91506112d4836111d3565b9250826112e4576112e3611260565b5b828204905092915050565b6112f881611155565b82525050565b600060208201905061131360008301846112ef565b92915050565b60008151905061132881611207565b92915050565b60006020828403121561134457611343610f32565b5b600061135284828501611319565b91505092915050565b600082825260208201905092915050565b7f4e6f7420656e6f756768205553444320696e20706f6f6c000000000000000000600082015250565b60006113a260178361135b565b91506113ad8261136c565b602082019050919050565b600060208201905081810360008301526113d181611395565b9050919050565b60006040820190506113ed60008301856112ef565b6113fa60208301846111dd565b9392505050565b61140a81610fbc565b811461141557600080fd5b50565b60008151905061142781611401565b92915050565b60006020828403121561144357611442610f32565b5b600061145184828501611418565b91505092915050565b7f55534443207472616e73666572206661696c6564000000000000000000000000600082015250565b600061149060148361135b565b915061149b8261145a565b602082019050919050565b600060208201905081810360008301526114bf81611483565b9050919050565b60006040820190506114db60008301856111dd565b6114e860208301846111dd565b9392505050565b60006114fa826111d3565b9150611505836111d3565b9250828202611513816111d3565b9150828204841483151761152a5761152961128f565b5b5092915050565b600061153c826111d3565b9150611547836111d3565b925082820390508181111561155f5761155e61128f565b5b92915050565b600060608201905061157a60008301866112ef565b61158760208301856112ef565b61159460408301846111dd565b949350505050565b60006040820190506115b160008301856112ef565b6115be602083018461112b565b939250505056fea2646970667358221220608131a68fda2e5a9da5c40d99d8b34a13c9cae4e5146f2c203cb0603ba1c60064736f6c634300081b0033",
  "linkReferences": {},
  "deployedLinkReferences": {}
}